:100000000C94C5010C94E2010C94E2010C94620E74
:100010000C94E2010C94E2010C94E2010C94E201D4
:100020000C94E2010C94E2010C94E2100C941D116A
:100030000C94E2010C94E2010C94E2010C94E201B4
:100040000C94E2010C94E2010C94E2010C94E201A4
:100050000C94E2010C94E2010C94E2010C94E20194
:100060000C94E2010C94E2010C94E2010C94E20184
:100070000C94E2010C94E2010C94E2010C94E20174
:100080000C94E2010C94E2010C94E2010C94A7029E
:100090000C94E2010C94E2010C94E2010C94E20154
:1000A0000C94E2010C94E2010C94E20176107310BE
:1000B00070106D106A106710641061105E105B1094
:1000C0005810551052104F104C1049104610431044
:1000D00040103D103A103710341031102E102B10F4
:1000E0002810251022101F101C10191016101310A4
:1000F00010100D100A10071004100110FE0FFB0F56
:10010000F80FF50FF20FEF0FEC0FE90FE60FE30F0B
:10011000E00FDD0FDA0FD70FD40FD10FCE0FCB0FBB
:10012000C80FC50FC20FBF0FBC0FB90FB60F084ADB
:10013000D73B3BCE016E84BCBFFDC12F3D6C7431FB
:100140009ABD56833DDA3D00C77F11BED9E4BB4C52
:100150003E916BAAAABE000000803F072C7AA5BA88
:100160006CC590DA3B9365FC8BBC53F810FD3C5694
:1001700092834DBD879D3AB63DCBC9BF5BBE73DA56
:100180000FC93F05A84CCDB2D44EB93836A9020CE0
:1001900050B9918688083CA6AAAA2ABE0000008011
:1001A0003F0A00292E002C0072696768745374613D
:1001B00072206174202800292E002C006C65667462
:1001C00053746172206174202800292E002C006273
:1001D0006F744D6964537461722061742028002922
:1001E0002E002C00746F704D69645374617220612D
:1001F000742028000A002920697320002C002800A0
:1002000020616E6420537461720029002C00280064
:100210006469737444696167206265742053746112
:1002200072000A002920697320002C002800206138
:100230006E6420537461720029002C0028006469E8
:100240007374486F72697A206265742053746172A6
:1002500000416E676C6520446573697265642D3E6C
:1002600000416E676C65204E6F772D3E00290A00B5
:100270002C20002C20002C20002C200061646342E4
:1002800061636B2C206164634C6F776572526967A0
:1002900068742C206164634D69642C20616463542C
:1002A0006F7052696768742C2061646346726F6E68
:1002B00074203D202800646972656374696F6E2044
:1002C00066616C73650A00646972656374696F6E58
:1002D00020747275650A00000100000B0312000211
:1002E00000001D0343000300006003040103090430
:1002F000640312020309047803060303090480035C
:10030000080001C11201803601813612010002028B
:10031000000010C0167A0400010102030109024323
:1003200000020100C03209040000010202010005C0
:1003300024001001052401010104240206052406FD
:1003400000010705820310004009040100020A00B1
:10035000000007050302400000070584024000007A
:100360000403090412034A002E002000460069001D
:1003700065006E006500000006034D0032000000BD
:100380000803340031003000000011241FBECFEFFD
:10039000DAE0DEBFCDBF11E0A0E0B1E0E8E0F5E3D8
:1003A00002C005900D92A830B107D9F711E0A8E07E
:1003B000B1E001C01D92A237B107E1F70E94B80D6C
:1003C0000C94821A0C9400008AEF90E090938B00BA
:1003D00080938A008FEF90E090938D0080938C0043
:1003E0002C98469808958FEF90E090938B0080931F
:1003F0008A0090938D0080938C002C9A469A0895E1
:10040000ECE8F0E0F0938B00E0938A0080E590E068
:10041000918380832C98469808958AE590E0909384
:100420008B0080938A00ECE8F0E0F183E0832C9865
:100430004698089580E890E090938B0080938A001E
:1004400090938D0080938C002C98469A089580E8B4
:1004500090E090938B0080938A0090938D0080931E
:100460008C002C9A4698089580911A0190911B0156
:100470000B978336910518F00E940D0208950E9493
:100480000002089580911A0190911B010B97833609
:10049000910518F00E94000208950E940D0208952F
:1004A00010928B0010928A0010928D0010928C0096
:1004B00008958C9A82E593E020E931E0F9013197C3
:1004C000F1F70197D9F78C9808959C014091180194
:1004D00050911901449748175907B0F02C5E3F4FCF
:1004E0002417350788F020911A0130911B01CB01A8
:1004F00044972817390740F080E06C5E7F4F621701
:10050000730718F081E0089580E008959C01409100
:10051000180150911901059748175907B0F02B5F42
:100520003F4F2417350788F020911A0130911B01A5
:10053000CB0105972817390740F080E06B5F7F4FAC
:100540006217730718F081E0089580E008951F9204
:100550000F920FB60F9211242F933F934F935F93F7
:100560006F937F938F939F93AF93BF93EF93FF937B
:1005700060911E0170911F0180911C0190911D01DD
:100580000E9486028823A1F080912D0190912E0176
:10059000A0912F01B09130010196A11DB11D809352
:1005A0002D0190932E01A0932F01B093300108C02C
:1005B00010922D0110922E0110922F0110923001F5
:1005C000809118019091190190931D0180931C0155
:1005D00080911A0190911B0190931F0180931E013D
:1005E000FF91EF91BF91AF919F918F917F916F910B
:1005F0005F914F913F912F910F900FBE0F901F90E1
:100600001895E1E8F0E080818B7F808380818260B3
:10061000808380818160808380818061808380810C
:1006200088608083E0E8F0E0808182608083808160
:10063000816080838FEF90E09093890080938800A1
:1006400080818062808380818F7E8083269A8081F2
:100650008860808380818B7F8083279A10928B00B3
:1006600010928A0010928D0010928C000895E1E99A
:10067000F0E080818B7F80838081826080838081B5
:100680008160808380818F7E80838081877F80836B
:10069000E0E9F0E080818D7F808380818E7F8083A0
:1006A000E1E7F0E08081816080830895ECE7F0E08D
:1006B00080818F778083808180648083EAE7F0E0A7
:1006C000808184608083808182608083808181607A
:1006D000808380E885BF85BFEEE7F0E080818160A0
:1006E000808380818260808380818061808380813B
:1006F00080628083808180648083089580917A0005
:100700008F7780937A0080917B008F7D80937B0030
:1007100080917C008B7F80937C0080917C008D7F1A
:1007200080937C0080917C008E7F80937C00809100
:100730007A00806880937A0080917A008064809348
:100740007A0080917A0084FFFCCF80917A008061EA
:1007500080937A002091780030917900C901089542
:1007600080917A008F7780937A0080917B008F7DD3
:1007700080937B0080917C008B7F80937C008091B4
:100780007C008D7F80937C0080917C0081608093D1
:100790007C0080917A00806880937A0080917A0052
:1007A000806480937A0080917A0084FFFCCF8091EE
:1007B0007A00806180937A002091780030917900EE
:1007C000C901089580917A008F7780937A00809193
:1007D0007B008F7D80937B0080917C008460809380
:1007E0007C0080917C008D7F80937C0080917C00D8
:1007F0008E7F80937C0080917A00806880937A005D
:1008000080917A00806480937A0080917A0084FFDE
:10081000FCCF80917A00806180937A0020917800EB
:1008200030917900C901089580917A008F77809383
:100830007A0080917B008F7D80937B0080917C008B
:10084000846080937C0080917C008D7F80937C000D
:1008500080917C00816080937C0080917A00806828
:1008600080937A0080917A00806480937A008091EE
:100870007A0084FFFCCF80917A00806180937A00B7
:100880002091780030917900C90108950E941404E4
:100890000B9724F06E9A769881E008956E9A769A76
:1008A00010922C0180E0089580917A008F778093D8
:1008B0007A0080917B008F7D80937B0080917C000B
:1008C000846080937C0080917C00826080937C00B7
:1008D00080917C008E7F80937C0080917A0080687C
:1008E00080937A0080917A00806480937A0080916E
:1008F0007A0084FFFCCF80917A00806180937A0037
:100900002091780030917900C90108958F929F92CB
:10091000AF92BF92CF92DF92EF92FF920F931F930D
:100920008C017B016A01490184EE91E00E948812EA
:10093000E9E4AE2EE1E0BE2E000F111F000F111FE3
:10094000F501E00FF11F808191810E942B1382EE4F
:1009500091E00E9488120A0D1B1DF801828193818B
:100960000E942B138FED91E00E9488128FEC91E092
:100970000E948812EE0CFF1CEE0CFF1CF501EE0D20
:10098000FF1D808191810E942B138DEC91E00E94CC
:100990008812EA0CFB1CF701828193810E942B13C1
:1009A0008AEC91E00E9488128CEB91E00E94881200
:1009B000CC0CDD1CCC0CDD1CF501EC0DFD1D80818B
:1009C00091810E942B138AEB91E00E948812CA0C3D
:1009D000DB1CF601828193810E942B1387EB91E04F
:1009E0000E94881288EA91E00E948812880C991C63
:1009F000880C991CF501E80DF91D808191810E94F8
:100A00002B1386EA91E00E948812A80CB91CF5010C
:100A1000828193810E942B1383EA91E00E948812C5
:100A200081EA91E00E9488121F910F91FF90EF9050
:100A3000DF90CF90BF90AF909F908F900895AF922E
:100A4000BF92CF92DF92EF92FF920F931F938C0190
:100A50007B015A0180E192E00E948812C801019650
:100A60000E945C138EE092E00E94881299E4C92EE5
:100A700091E0D92E000F111F000F111FF601E00F9A
:100A8000F11F808191810E942B138CE092E00E94E3
:100A900088120C0D1D1DF801828193810E942B1379
:100AA0008AE092E00E94881280E092E00E94881220
:100AB000C70101960E945C138EEF91E00E9488129C
:100AC000EE0CFF1CEE0CFF1CF601EE0DFF1D8081ED
:100AD00091810E942B138CEF91E00E948812CE0C22
:100AE000DF1CF601828193810E942B1386EF91E037
:100AF0000E948812C5010E942B1384EF91E00E948E
:100B000088121F910F91FF90EF90DF90CF90BF90D0
:100B1000AF900895AF92BF92CF92DF92EF92FF9283
:100B20000F931F938C017B015A018EE392E00E9488
:100B30008812C80101960E945C138CE392E00E9427
:100B4000881269E4C62E61E0D62E000F111F000F37
:100B5000111FF601E00FF11F808191810E942B137C
:100B60008AE392E00E9488120C0D1D1DF80182811B
:100B700093810E942B1388E392E00E9488128EE2F8
:100B800092E00E948812C70101960E945C138CE2D9
:100B900092E00E948812EE0CFF1CEE0CFF1CF60186
:100BA000EE0DFF1D808191810E942B138AE292E05D
:100BB0000E948812CE0CDF1CF601828193810E9474
:100BC0002B1384E292E00E948812C5010E942B132D
:100BD00082E292E00E9488121F910F91FF90EF90A5
:100BE000DF90CF90BF90AF9008958F929F92AF9279
:100BF000BF92CF92DF92EF92FF920F931F930E94CA
:100C00007E038C010E94B0037C010E94E2036C0110
:100C10000E9414045C010E9454044C018CE792E091
:100C20000E948812C8010E945C1389E792E00E942A
:100C30008812C7010E945C1386E792E00E94881226
:100C4000C6010E945C1383E792E00E948812C501EE
:100C50000E945C1380E792E00E948812C4010E9407
:100C60005C138DE692E00E9488120E94E4011F91BD
:100C70000F91FF90EF90DF90CF90BF90AF909F903B
:100C80008F90089580E8809361001092610081E068
:100C900068E04CE00E943F140E94AE0E0E948E134A
:100CA0000E946A158823E1F30E9401030E94370322
:100CB0000E94560378943E9A249A849A25982D98F7
:100CC0000895AF92BF92CF92DF92EF92FF920F936F
:100CD0001F937C01882777FD8095982F0E94A41789
:100CE0005B016C0160911A0170911B0180E090E042
:100CF0000E94A2179B01AC01C601B5010E943B16E0
:100D00005B016C010027F7FC0095102FC801B701AB
:100D10000E94A4177B018C01609118017091190148
:100D200080E090E00E94A2179B01AC01C801B701CE
:100D30000E943B169B01AC01C601B5010E94AF1693
:100D40001F910F91FF90EF90DF90CF90BF90AF90E9
:100D50000895AF92BF92CF92DF92EF92FF920F93DE
:100D60001F93609108017091090180E090E00E945A
:100D7000A2177B018C0160910C0170910D0180E044
:100D800090E00E94A2179B01AC01C801B7010E942C
:100D90003B165B016C0160910E0170910F0180E0C8
:100DA00090E00E94A2177B018C0160910A01709172
:100DB0000B0180E090E00E94A2179B01AC01C801EA
:100DC000B7010E943B169B01AC01C601B5010E9410
:100DD000AF16609337017093380180933901909377
:100DE0003A011F910F91FF90EF90DF90CF90BF904D
:100DF000AF900895CF92DF92EF92FF920F931F93DF
:100E0000CF93DF93EC016B0168817981F6018081DA
:100E10009181681B790B77FF03C0709561957F4FB7
:100E200080E090E00E94A2179B01AC010E94D818BC
:100E3000AC01CB01DA017C018D016A817B81F60175
:100E400082819381681B790B77FF03C07095619550
:100E50007F4F80E090E00E94A2179B01AC010E94AE
:100E6000D8189B01AC01C801B7010E943C160E9432
:100E700045190E947617CB01DF91CF911F910F91F9
:100E8000FF90EF90DF90CF9008952F923F924F9276
:100E90005F926F927F928F929F92AF92BF92CF920A
:100EA000DF92EF92FF920F931F93DF93CF93CDB713
:100EB000DEB762970FB6F894DEBF0FBECDBF89E5EF
:100EC00091E00E94DD14A9E5B1E0E9E4CE2EE1E075
:100ED000DE2EF6018D919C9111979183808312965D
:100EE0008D919C911397938382831696349621E07B
:100EF000A137B20779F779E4A72E71E0B72E442421
:100F00005524F501808191818F5F934049F02A2C0F
:100F10006B2C69E4E62E61E0F62E00E010E007C0DD
:100F2000F501828193818F5F934089F706C2F701B3
:100F3000808191818F5F934039F4F70182819381A1
:100F40008F5F934009F4EFC10415150509F4EBC157
:100F50009E2C8F2C822D962DB7010E94FA068E555D
:100F60009040079708F0DFC1E9E4F1E0EE24FF24A8
:100F7000808191818F5F934031F4828193818F5F73
:100F8000934009F4C6C1E414F50409F4C2C1E016A3
:100F9000F10609F4BEC1B701660F771F660F771F10
:100FA000675B7E4F892D982D0E94FA069C01805424
:100FB0009040079708F051C0A0E0B0E0F601208112
:100FC0003181F3E02F3F3F0731F4F60182819381B5
:100FD0008F5F9340C1F1A415B505A9F1A017B10722
:100FE00091F1AE15BF0579F1440C551C440C551C0C
:100FF000F201E75BFE4F808191819093090180931C
:1010000008018BE491E0480E591EF2018081918124
:1010100090930B0180930A01000F111F000F111F05
:10102000F801E75BFE4F8081918190930D018093E1
:101030000C01055B1E4FF8018081918190930F0197
:1010400080930E01B0C0119624E030E0C20ED31E92
:10105000A430B10509F0B2CFBCC2C901845590409B
:10106000079708F051C0A0E0B0E0F601208131817F
:10107000F3E02F3F3F0731F4F601828193818F5FC8
:101080009340C1F1A415B505A9F1A017B10791F1DD
:10109000AE15BF0579F1440C551C440C551CF201EA
:1010A000E75BFE4F80819181909309018093080155
:1010B0008BE491E0480E591EF2018081918190935A
:1010C0000B0180930A01000F111F000F111FF8017F
:1010D000E75BFE4F8081918190930D0180930C011D
:1010E000055B1E4FF8018081918190930F018093E1
:1010F0000E01DCC0119624E030E0C20ED31EA430F5
:10110000B10509F0B2CF65C2C901C397079708F0CE
:101110007DC0A0E0B0E0F60120813181F3E02F3FF7
:101120003F0739F4F601828193818F5F934009F480
:1011300063C0A415B50509F45FC0A017B10709F491
:101140005BC0AE15BF0509F457C0440C551C440CD8
:10115000551CF201E75BFE4F8081918190930D0158
:1011600080930C018BE491E0480E591EF2018081BE
:10117000918190930F0180930E01000F111F000FBA
:10118000111FF801E75BFE4F808191819093090167
:1011900080930801055B1E4FF80180819181909337
:1011A0000B0180930A01EE0CFF1CEE0CFF1CF701F3
:1011B000E75BFE4F80819181909311018093100134
:1011C0008BE491E0E80EF91EF70180819181909304
:1011D0001301809312013093150120931401AA0F7B
:1011E000BB1FAA0FBB1FA55BBE4F8D919C91909317
:1011F000170180931601AEC0119624E030E0C20EB4
:10120000D31EA430B10509F086CFE3C12952304086
:101210002730310508F0DDC1A0E0B0E0F601208103
:101220003181F3E02F3F3F0739F4F601828193814A
:101230008F5F934009F463C0A415B50509F45FC03E
:10124000A017B10709F45BC0AE15BF0509F457C07C
:10125000440C551C440C551CF201E75BFE4F808189
:10126000918190930D0180930C018BE491E0480EE5
:10127000591EF2018081918190930F0180930E019C
:10128000000F111F000F111FF801E75BFE4F808157
:1012900091819093090180930801055B1E4FF8012D
:1012A0008081918190930B0180930A01EE0CFF1CC9
:1012B000EE0CFF1CF701E75BFE4F8081918190935C
:1012C0001501809314018BE491E0E80EF91EF701FB
:1012D00080819181909317018093160130931101C1
:1012E00020931001AA0FBB1FAA0FBB1FA55BBE4F07
:1012F0008D919C9190931301809312012BC01196B4
:1013000024E030E0C20ED31EA430B10509F086CF30
:1013100060C10894E11CF11C349634E0E316F1043A
:1013200009F026CE56C10F5F1F4F84E090E0E80E13
:10133000F91E0430110509F0FACD0894411C511C26
:10134000E4E0F0E0AE0EBF1EF4E04F16510409F0E9
:10135000D8CD3FC180E092E09093190180931801AD
:1013600080E891E090931B0180931A0188E191E05D
:1013700068E071E00E94FA067C0188E191E06CE08F
:1013800071E00E94FA063C0188E191E060E171E0C1
:101390000E94FA061C0188E191E064E171E00E947C
:1013A000FA069A8B898B00E010E0C801B7010E9411
:1013B000A2176D877E878F87988B9B01AC010E9457
:1013C000D8185B016C0188249924C401B3010E94E0
:1013D000A21769877A878B879C879B01AC010E9443
:1013E000D8187B018C01C601B50120E034E043E14F
:1013F00056E40E943C16A80197010E943B163B014F
:101400004C016D857E858F85988920E030E042E42F
:1014100053E40E94D8189B01AC01C401B3010E949F
:1014200009170E942D163B014C01C801B70120E0AD
:1014300034E043E156E40E943C16A60195010E9467
:101440003B167B018C0169857A858B859C8520E024
:1014500030E042E453E40E94D8189B01AC01C8017B
:10146000B7010E9409170E942D167B018C01C4014F
:10147000B3010E9406176D837E838F839887C8010E
:10148000B7010E94061769837A838B839C83442467
:101490005524C201B1010E94A2173B014C01A401D5
:1014A00093010E94D8185B016C0129893A89B9011E
:1014B00080E090E00E94A2179B01AC010E94D81826
:1014C0007B018C01C601B50120E038E449EB55E40D
:1014D0000E943C16A80197010E943B167B018C01DB
:1014E000C401B30120E030E04AE153E40E94D8187F
:1014F0009B01AC01C801B7010E9409170E942D167B
:1015000020EE3DE240E95EE30E943B1627E836E12B
:1015100049EC5FE30E943B160E943B19A401930132
:101520000E94D81826E636E646E550E40E940917E0
:101530009B01AC0160E070E08AED92E40E943B16F2
:101540000E94761770931901609318016D817E8156
:101550008F8198852D853E854F8558890E94D818A2
:1015600020E030E042E452E40E943B167B018C0113
:1015700069817A818B819C81905829853A854B8538
:101580005C850E94D81820E030E042E452E40E94DA
:101590003B169B01AC01C801B7010E943C1620E03C
:1015A00030E040E05FE30E94D81826E636E646E5E4
:1015B00050E40E9409179B01AC0160E070E080E7F5
:1015C00092E40E943B160E94761770931B01609371
:1015D0001A0162960FB6F894DEBF0FBECDBFCF9151
:1015E000DF911F910F91FF90EF90DF90CF90BF9010
:1015F000AF909F908F907F906F905F904F903F90B3
:101600002F9008955F926F927F928F929F92AF92E8
:10161000BF92CF92DF92EF92FF920F931F938C01B4
:101620007B010E944507C801B7010E94A906C801B5
:10163000B7010E9461063B014C0181E692E00E94E5
:101640008812609137017091380180913901909131
:101650003A0120E030E044E652E40E94D8180E94AB
:101660007117DC01CB010E945C1381E592E00E94BE
:101670008812C401B30120E030E044E652E40E9445
:10168000D8180E947117DC01CB010E945C1355240D
:10169000C401B30120E030E040E050E00E94CD18EA
:1016A000882394F055245394609137017091380148
:1016B0008091390190913A0120E030E040E050E023
:1016C0000E94CD1887FF1BC0C401B30120E030E0A9
:1016D00040E050E00E94021788230CF043C0609164
:1016E0003701709138018091390190913A0120E0E1
:1016F00030E040E050E00E94021788239CF5E09023
:101700003701F09038010091390110913A01C4017C
:10171000B3012AE939E949E95EE30E943B169B01DE
:10172000AC01C801B7010E94CD1888238CF0C40118
:10173000B3012AE939E949E95EE30E943C169B01BD
:10174000AC01C801B7010E94021718160CF093C033
:10175000C401B301A80197010E94CD1818160CF01E
:1017600055C086C0E0903701F090380100913901F2
:1017700010913A01C801B70120E030E040E050E0AC
:101780000E94CD1888231CF0570168010AC0C801C7
:10179000B70127E836E149EC50E40E943C165B01B2
:1017A0006C015520B9F1C801B70120E030E040E0FC
:1017B00050E00E94021788236CF5C401B3012AE9A6
:1017C00039E949E95EE30E94021788238CF4C401D9
:1017D000B3012AE939E949E95EE30E943B169B011E
:1017E000AC01C801B7010E94CD1818160CF443C013
:1017F000C401B301A80197010E943B1627E836E116
:1018000049E450E40E940217181694F50E9434022D
:1018100080E032C0C401B3012AE939E949E95EE355
:101820000E943B169B01AC01C601B5010E94CD1878
:10183000882384F0C401B3012AE939E949E95EE368
:101840000E943C169B01AC01C601B5010E94021723
:1018500018168CF4C801B701A40193010E943B162D
:1018600027E836E149E450E40E940217181674F69E
:101870000E944202CDCF81E01F910F91FF90EF9027
:10188000DF90CF90BF90AF909F908F907F906F90A0
:101890005F9008950F931F93CF93DF931D9B04C018
:1018A00081E08093430102C0109243010E947E03B5
:1018B0008C010E94B003EC0180914301882319F050
:1018C00087EC92E002C086EB92E00E948812809141
:1018D0002D0190912E01A0912F01B0913001181689
:1018E00019061A061B06FCF40E940D0280E197E21D
:1018F00020E931E0F9013197F1F70197D9F70E941A
:10190000F30188E893E120E931E0F9013197F1F73B
:101910000197D9F710922D0110922E0110922F01EC
:101920001092300154C00E9446048823A9F16A9A9B
:10193000729A88EE93E020E931E0F9013197F1F7EE
:101940000197D9F780914301882319F480E090E052
:1019500002C080EF90E06CE370E00E94020B8823ED
:10196000B1F180914301882341F080911801909159
:101970001901813A910568F007C080911801909192
:1019800019018035910528F46A9A72980E945902CB
:101990001EC06A9A729A14C023E0013C120724F414
:1019A00083E0C13CD8077CF0CE01801B910B8B30CB
:1019B00091051CF00E9427020AC0865F9F4F2CF001
:1019C0000E94E40104C06A9A729A0E941A02DF918E
:1019D000CF911F910F9108950F931F93CF93DF9392
:1019E000EC018B010E944507CE01B8010E946502FF
:1019F000882351F010928B0010928A0010928D0073
:101A000010928C0081E009C0CE01B8010E94020B47
:101A1000882319F00E94E40180E0DF91CF911F91AB
:101A20000F9108950F931F93CF93DF931D9B04C0D5
:101A300081E08093430102C0109243010E94450758
:101A40000E947E038C010E94B003EC0180912D0165
:101A500090912E01A0912F01B09130010697A1091C
:101A6000B1090497A105B10550F50E94F30184EC7A
:101A700099E020E931E0F9013197F1F70197D9F7C1
:101A80000E940D0284EC99E020E931E0F9013197E0
:101A9000F1F70197D9F70E94F30184EC99E020E96E
:101AA00031E0F9013197F1F70197D9F710922D0143
:101AB00010922E0110922F011092300154C00E94FA
:101AC00046048823A9F16A9A729A88EE93E020E985
:101AD00031E0F9013197F1F70197D9F7809143018E
:101AE000882319F480E090E002C080EF90E06CE37E
:101AF00070E00E94020B8823B1F18091430188239A
:101B000041F08091180190911901813A910568F096
:101B100007C080911801909119018035910528F432
:101B20006A9A72980E9459021EC06A9A729A14C0E8
:101B300023E0013C120724F483E0C13CD8077CF089
:101B4000CE01801B910B8B3091051CF00E94270267
:101B50000AC0865F9F4F2CF00E94E40104C06A9A7D
:101B6000729A0E941A02DF91CF911F910F910895EE
:101B70001F93CF93DF930E944206C0E9D1E010E4A7
:101B800080914401833A09F452C0843A48F4813A7E
:101B9000A1F1823A08F03EC0803A09F08AC00DC037
:101BA000853A09F467C0853A08F44EC0863A09F4CC
:101BB0006EC0873A09F07DC077C080914401803AB9
:101BC000F9F610928B0010928A0010928D001092FC
:101BD0008C006E9A8EB181278EB910924401D0CFBD
:101BE0000E94120D8091310190913201019729F4E8
:101BF0001092320110923101C3CF80914401813A99
:101C000079F3BECF10928B0010928A0010928D0053
:101C100010928C0080914401823AA1F3B1CF1092CE
:101C20008B0010928A0010928D0010928C0080918F
:101C30004401833AA1F3A4CF10928B0010928A0042
:101C400010928D0010928C0080914401843AA1F38F
:101C500097CF0E94F30188E893E1FE013197F1F7F5
:101C60000197D9F710928B0010928A0010928D0084
:101C700010928C0080914401853A59F381CF1092E3
:101C80008B0010928A0010928D0010928C0080912F
:101C90004401863AA1F374CF10928B0010928A000F
:101CA00010928D0010928C0080914401873AA1F32C
:101CB00067CF10928B0010928A0010928D001092C4
:101CC0008C005ECF1F920F920FB60F9211242F93AC
:101CD0003F934F935F936F937F938F939F93AF93B4
:101CE000BF93EF93FF9380E291E06CE00E949F131B
:101CF000809120018093440180912101992787FDE3
:101D000090959093400180933F0180912201992703
:101D100087FD90959093420180934101109271014B
:101D200080912301882319F081E08093710181E083
:101D300090E09093320180933101FF91EF91BF9138
:101D4000AF919F918F917F916F915F914F913F9153
:101D50002F910F900FBE0F901F90189581E08093E8
:101D6000D70080EA8093D80082E189BD09B400FEE3
:101D7000FDCF80E98093D8001092E00010923301EB
:101D8000109234018CE08093E20078940895809161
:101D9000330108959FB7F89480913301882339F077
:101DA00083E08093E9008091E80085FD03C09FBF38
:101DB0008FEF08952091F1008091E80085FD03C028
:101DC0008BE68093E8009FBF822F08959FB7F89419
:101DD00080913301882329F083E08093E90080918A
:101DE000F2009FBF089580913301882371F09FB75F
:101DF000F89483E08093E9002BE602C02093E8008A
:101E00008091E80085FDFACF9FBF0895482F80910B
:101E100033018823D9F12FB7F89484E08093E90047
:101E200080913601882341F08091E80085FD02C051
:101E30002FBF12C0109236019091E400975E34E0FB
:101E40008091E80085FD13C02FBF8091E4008917C1
:101E500029F481E0809336018FEF0895809133015A
:101E60008823A1F02FB7F8943093E900E9CF40938D
:101E7000F1008091E80085FD03C08AE38093E800CB
:101E800085E0809335012FBF80E008958FEF08959E
:101E9000282F80913301882351F09FB7F89484E074
:101EA0008093E9008091E80085FD03C09FBF8FEF1C
:101EB00008952093F1008091E80085FD03C08AE336
:101EC0008093E80085E0809335019FBF80E008950E
:101ED000CF93DF93EC0180913301882309F41CC177
:101EE0003FB7F89484E08093E9008091360188231D
:101EF00009F407C18091E80085FD02C03FBF0CC115
:101F000010923601FEC09091E400975E8091E80047
:101F100085FD13C03FBF8091E400891721F481E063
:101F200080933601F9C080913301882309F4F4C00D
:101F30003FB7F8945093E900E9CF8091F2002A2F3F
:101F4000281B822F90E06817790708F4262F822F2C
:101F500090E08134910508F0C6C08A5A9F4FFC0179
:101F6000EE0FFF1F0590F491E02D09948991809365
:101F7000F10089918093F10089918093F10089911A
:101F80008093F10089918093F10089918093F10011
:101F900089918093F10089918093F10089918093D8
:101FA000F10089918093F10089918093F1008991EA
:101FB0008093F10089918093F10089918093F100E1
:101FC00089918093F10089918093F10089918093A8
:101FD000F10089918093F10089918093F1008991BA
:101FE0008093F10089918093F10089918093F100B1
:101FF00089918093F10089918093F1008991809378
:10200000F10089918093F10089918093F100899189
:102010008093F10089918093F10089918093F10080
:1020200089918093F10089918093F1008991809347
:10203000F10089918093F10089918093F100899159
:102040008093F10089918093F10089918093F10050
:1020500089918093F10089918093F1008991809317
:10206000F10089918093F10089918093F100899129
:102070008093F10089918093F10089918093F10020
:1020800089918093F10089918093F10089918093E7
:10209000F10089918093F10089918093F1008991F9
:1020A0008093F10089918093F10089918093F100F0
:1020B00089918093F10089918093F10089918093B7
:1020C000F10089918093F10089918093F1008991C9
:1020D0008093F10089918093F10089918093F100C0
:1020E00089918093F10089918093F1008091E800BB
:1020F00085FD02C0B093E800621B71094093350171
:1021000004C054E0A0E4BAE345E06115710509F0AC
:10211000FACE3FBF80E001C08FEFDF91CF910895ED
:102120009FB7F89480913501882341F084E0809333
:10213000E9008AE38093E800109235019FBF08957B
:102140006091000170910101809102019091030161
:10215000089580910401089580910501089580916A
:1021600006010895809134010895382F9FB7F8949F
:1021700080913301882339F022E02093E900809197
:10218000E80085FD03C09FBF8FEF089581EA80932B
:10219000F10080E28093F1001092F1001092F100C2
:1021A0001092F1001092F1002093F1001092F100D2
:1021B0003093F1001092F1008AE38093E8009FBF12
:1021C00080E008951F920F920FB60F9211248F9303
:1021D0009F938091E1001092E100982F83FF11C03E
:1021E0001092E90081E08093EB001092EC0082E114
:1021F0008093ED0088E08093F000109233011092FC
:10220000340192FF13C080913301882379F08091CB
:102210003501882359F0815080933501882331F4AA
:1022200084E08093E9008AE38093E8009F918F9196
:102230000F900FBE0F901F9018951F920F920FB620
:102240000F9211240F931F932F933F934F935F93FC
:102250006F937F938F939F93AF93BF93EF93FF936E
:102260001092E9008091E80083FF3CC14091F100A9
:102270003091F1008091F100682F70E02091F10021
:10228000922F80E0682B792B8091F100A82FB0E08D
:102290002091F100922F80E0A82BB92B1091F10032
:1022A0000091F10082EF8093E800363009F05AC0C7
:1022B0002EED32E0A90145505040F9013797859144
:1022C00094918617970701F5FA01859194918A17E1
:1022D0009B07D1F49A012E5F3F4FF90165917491EC
:1022E0002E5F3F4FF9014491212F30E0902F80E085
:1022F000282B392B2F3F310519F010F02FEF30E04C
:10230000241758F4422F09C0295F3F4F495F5F4FA0
:10231000F3E028303F0789F6E5C05EEF8091E800E2
:10232000282F30E0C90185709070892BB9F322FD08
:10233000DCC0342F413108F030E1232FCB0106C03F
:10234000FC010196E491E093F10021502223C1F7B2
:10235000630F711D431B5093E8004423F9F630319D
:10236000E9F2C3C0353061F48EEF8093E8008091CC
:10237000E80080FFFCCF862F80688093E300B5C023
:10238000393051F5442309F0ADC060933301109208
:102390003401109235018EEF8093E80081E093E0E4
:1023A00021E02093E900FC010196E491E093EB0029
:1023B000EE2369F0AC014F5F5F4FFC018491809385
:1023C000EC00CA010196FA0134913093ED002F5FC1
:1023D000253039F78EE181C0383061F4403809F09A
:1023E00081C08091E80080FFFCCF80913301809311
:1023F000F10050C0313289F4413A09F073C0809144
:10240000E80080FFFCCFE0E0F1E081918093F100F3
:1024100081E0E730F807C9F73DC03032A1F441321E
:1024200009F060C08091E80082FFFCCFE0E0F1E0BD
:102430008091F100819381E0E730F807C9F78BEFD5
:102440008093E80027C0323251F4413209F04AC08B
:10245000609334018091E80080FFFCCF1BC03323E0
:10246000E9F48091E80080FFFCCF423811F080E071
:102470000DC0A093E9008091EB0090E025E09695D7
:1024800087952A95E1F781701092E9008093F10019
:102490001092F1008EEF8093E80027C0313011F0E8
:1024A000333001F54230F1F4672BE1F42A2F2F7716
:1024B000822F81508430B0F48EEF8093E800209317
:1024C000E900333079F089E18093EB0081E090E01E
:1024D00002C0880F991F2A95E2F78093EA001092B4
:1024E000EA0003C081E28093EB00FF91EF91BF917E
:1024F000AF919F918F917F916F915F914F913F919C
:102500002F911F910F910F900FBE0F901F90189554
:102510001F93CF93DF93EC01FE01219614911123B9
:1025200049F01A3019F48DE00E94060F812F0E94A5
:10253000060FF2CFDF91CF911F910895982F8A3027
:1025400010F087E301C080E3890F0E94060F089511
:102550001F93182F82958F700E949E12812F8F706B
:102560000E949E121F9108951F93182F892F0E9479
:10257000A812812F0E94A8121F9108950E94A812EC
:102580000895EF92FF920F931F93DF93CF93CDB7F0
:10259000DEB72A970FB6F894DEBF0FBECDBF8E010F
:1025A0000F5F1F4F2AE0F80111922A95E9F7A80161
:1025B0002AE030E00E94011A3BE0E32EF12CEC0E01
:1025C000FD1EF80181918F010E94060F0E151F0557
:1025D000C1F72A960FB6F894DEBF0FBECDBFCF91DC
:1025E000DF911F910F91FF90EF900895EF92FF926E
:1025F0000F931F93DF93CF93CDB7DEB72B970FB613
:10260000F894DEBF0FBECDBF8E010F5F1F4F2BE0D2
:10261000F80111922A95E9F7A8012AE030E00E941A
:10262000CD194CE0E42EF12CEC0EFD1EF801819149
:102630008F010E94060F0E151F05C1F72B960FB6CE
:10264000F894DEBF0FBECDBFCF91DF911F910F91E8
:10265000FF90EF900895EF92FF920F931F93DF93F7
:10266000CF9300D000D00F92CDB7DEB78E010F5FB1
:102670001F4F25E0F80111922A95E9F7B8014AE0C9
:1026800050E00E94261A56E0E52EF12CEC0EFD1EBD
:10269000F80181918F010E94060F0E151F05C1F7E9
:1026A0000F900F900F900F900F90CF91DF911F918F
:1026B0000F91FF90EF900895EF92FF920F931F9369
:1026C000DF93CF9300D000D000D0CDB7DEB78E011E
:1026D0000F5F1F4F26E0F80111922A95E9F7B80124
:1026E0004AE050E00E94AC1967E0E62EF12CEC0EB7
:1026F000FD1EF80181918F010E94060F0E151F0526
:10270000C1F726960FB6F894DEBF0FBECDBFCF91AE
:10271000DF911F910F91FF90EF900895589A599A69
:102720005A9A8CE08093B800E9E6F0E080818062FC
:10273000808380818F7E8083EA9A789408959C01BB
:1027400084EA8093BC008091BC0087FFFCCF81E5C8
:102750008093BB0084E88093BC008091BC0087FF1D
:10276000FCCF8091B900887F8834A1F084EC8093FD
:10277000BC008091BC0087FFFCCF8091BB00861716
:1027800049F4A0E0B0E0772767FD70956150704094
:1027900094EC12C084E98093BC0080E0089590938B
:1027A000BC008091BC0087FFFCCF8091BB00F90189
:1027B000EA0FFB1F80831196A617B70784F384E8FE
:1027C0008093BC008091BC0087FFFCCF8091BB0050
:1027D000A20FB31F8C9384E98093BC0081E008951D
:1027E000982FF89484EA8093BC008091BC0087FF06
:1027F000FCCF80E58093BB0084E88093BC0080918F
:10280000BC0087FFFCCF8091B900887F803231F413
:1028100084E98093BC00789480E0089583E08093FD
:10282000BB0084E88093BC008091BC0087FFFCCF94
:102830009093BB0084E88093BC008091BC0087FF2C
:10284000FCCF20E030E0552747FD509594E80EC0BE
:10285000FB01E20FF31F80818093BB009093BC00CB
:102860008091BC0087FFFCCF2F5F3F4F24173507B7
:102870007CF384E98093BC00789481E00895FF9212
:102880000F931F93182F062FF42E0E948E1384EAA5
:102890008093BC008091BC0087FFFCCF80E58093D3
:1028A000BB0084E88093BC008091BC0087FFFCCF14
:1028B0008091B900887F803229F484E98093BC003C
:1028C00080E029C081E08093BB0084E88093BC0055
:1028D0008091BC0087FFFCCF1093BB0084E88093FD
:1028E000BC008091BC0087FFFCCF0093BB0084E854
:1028F0008093BC008091BC0087FFFCCFF092BB00AE
:1029000084E88093BC008091BC0087FFFCCF84E901
:102910008093BC0081E01F910F91FF90089520E00B
:1029200030E08091BC0087FD06C02F5F3F4F83E001
:10293000293E3807B1F780E0285E334009F081E096
:1029400008958093BB0084E88093BC000E948F149C
:10295000882319F08091B900887F08951F93182F5C
:1029600084EA8093BC000E948F14882369F0110FC1
:10297000812F8F5F0E94A114883411F081E004C080
:1029800084E98093BC0080E01F9108951F93182F65
:1029900084EA8093BC000E948F14882361F0812F09
:1029A000880F0E94A114803211F081E004C084E9F4
:1029B0008093BC0080E01F9108950F931F93DF93D5
:1029C000CF93CDB7DEB760970FB6F894DEBF0FBEDA
:1029D000CDBF182F092F88E50E94C614882309F45B
:1029E00069C086E30E94A114882309F463C084E9C6
:1029F0008093BC0085E88A95F1F788E50E94AE14C3
:102A0000882309F457C0FE01319680E1DF011D9251
:102A10008A95E9F794EC9E01205F3F4F9093BC00AC
:102A20008091BC0087FFFCCF8091BB008193E217AF
:102A3000F307A1F784E88093BC008091BC0087FF76
:102A4000FCCF8091BB00888B84E98093BC00DE01C1
:102A50001296212F302FC901FC01BE01625F7F4F0A
:102A600012962C91129730E0C9018073907054E057
:102A7000880F991F5A95E1F74C91840F911D91830E
:102A80008083C901807C9070880F991F880F991FDF
:102A900011964C911197840F911D938382832F700F
:102AA00030703583248313963696A617B707C1F680
:102AB00081E001C080E060960FB6F894DEBF0FBEE3
:102AC000CDBFCF91DF911F910F91089584E980933D
:102AD000BC0008951F93CF93DF930E948E1388E567
:102AE0000E94C614882309F4B3C080E30E94A11495
:102AF000882309F4ADC081E00E94A114882309F461
:102B0000A7C084E98093BC0080E49CE90197F1F7B9
:102B100088E50E94C614882309F49AC080E00E94C8
:102B2000A114882309F494C080E00E94A114882392
:102B300009F48EC080E00E94A114882309F488C0A3
:102B400080E00E94A114882309F482C080E00E94E2
:102B5000A114882309F47CC080E00E94A11488237A
:102B600009F476C080E00E94A114882309F470C0A3
:102B700080E90E94A114882309F46AC014E9109323
:102B8000BC00C0E4DCE9CE010197F1F788E50E94C2
:102B9000C614882309F45CC087E00E94A11488232E
:102BA00009F456C080E00E94A114882309F450C0A3
:102BB00081E40E94A114882309F44AC01093BC0048
:102BC000CE010197F1F788E50E94C614882309F425
:102BD0003FC08AE10E94A114882309F439C080E42F
:102BE0000E94A1148823A1F180E00E94A1148823EF
:102BF00079F11093BC00CE010197F1F788E50E94AE
:102C0000C614882329F183E30E94A114882301F1CB
:102C100083E00E94A1148823D9F01093BC00CE0158
:102C20000197F1F788E50E94C614882389F080E3B4
:102C30000E94A114882361F088E00E94A1148823D7
:102C400039F01093BC00CE010197F1F781E001C08B
:102C500080E0DF91CF911F9108959F939F77AFD12F
:102C60000F9000203AF49058A2EA2AED3FE049E4A0
:102C700050E413D047C25058BB27AA270ED042C2F7
:102C80000BD230F010D220F031F49F3F11F41EF43B
:102C9000DBC10EF4E095E7FBD1C1E92F55D280F3FB
:102CA000BA17620773078407950718F071F49EF549
:102CB0006DC20EF4E0950B2EBA2FA02D0B01B901B9
:102CC00090010C01CA01A0011124FF27591B99F0A2
:102CD000593F50F4503E68F11A16F040A22F232FAE
:102CE000342F4427585FF3CF469537952795A795FE
:102CF000F0405395C9F77EF41F16BA0B620B730BA5
:102D0000840BBAF09150A1F0FF0FBB1F661F771F15
:102D1000881FC2F70EC0BA0F621F731F841F48F4CA
:102D2000879577956795B795F7959E3F08F0B3CF50
:102D30009395880F08F09927EE0F9795879508953A
:102D4000ABD158F080E891E009F49EEFACD128F0C7
:102D500040E851E059F45EEF09C076C117C2E92F8F
:102D6000E078F2D168F3092E052AC1F32617370758
:102D70004807590738F00E2E07F8E02569F0E025DE
:102D8000E0640AC0EF6307F8009407FADB01B901B9
:102D90009D01DC01CA01AD01EF934AD0B3D10AD045
:102DA0005F91552331F02BED3FE049E450FD49ECB4
:102DB00063CF0895DF93DD27B92FBF7740E85FE346
:102DC0001616170648075B0710F4D92FEAD19F9310
:102DD0008F937F936F9397D2EEE2F1E038D192D147
:102DE0002F913F914F915F91EFD1DD2349F09058A2
:102DF000A2EA2AED3FE049EC5FE3D0785D274DDFA2
:102E0000DF9180C1F7D008F481E0089554D1E395B3
:102E10008AC10CD077C147D140F03ED130F021F4C7
:102E20005F3F19F00BC15111B2C10EC18DD198F3A2
:102E30009923C9F35523B1F3951B550BBB27AA273B
:102E400062177307840738F09F5F5F4F220F331FAD
:102E5000441FAA1FA9F333D00E2E3AF0E0E830D079
:102E600091505040E695001CCAF729D0FE2F27D07C
:102E7000660F771F881FBB1F261737074807AB074A
:102E8000B0E809F0BB0B802DBF01FF2793585F4FBF
:102E90002AF09E3F510568F0D1C079C15F3FECF345
:102EA000983EDCF3869577956795B795F7959F5F84
:102EB000C9F7880F911D9695879597F90895E1E0D8
:102EC000660F771F881FBB1F621773078407BA0737
:102ED00020F0621B730B840BBA0BEE1F88F7E09592
:102EE000089504D06894B11152C1089535D188F085
:102EF0009F5790F0B92F9927B751A0F0D1F0660FE6
:102F0000771F881F991F1AF0BA95C9F712C0B13000
:102F100081F03CD1B1E0089539C1672F782F88271F
:102F2000B85F39F0B93FCCF3869577956795B3953F
:102F3000D9F73EF490958095709561957F4F8F4FAE
:102F40009F4F0895E89409C097FB3EF490958095B3
:102F5000709561957F4F8F4F9F4F9923A9F0F92F5F
:102F600096E9BB279395F695879577956795B795DD
:102F7000F111F8CFFAF4BB0F11F460FF1BC06F5FC3
:102F80007F4F8F4F9F4F16C0882311F096E911C0D5
:102F9000772321F09EE8872F762F05C0662371F0F6
:102FA00096E8862F70E060E02AF09A95660F771F0A
:102FB000881FDAF7880F9695879597F90895DF931C
:102FC000CF931F930F938B01EC01EBE5F1E03FD022
:102FD00099D09801AE018B01EC0160E070E080E8CF
:102FE0009FE349DE52D19801AE010F911F91CF911D
:102FF000DF91EAC0990F0008550FAA0BE0E8FEEF39
:1030000016161706E807F907C0F012161306E407AC
:10301000F50798F0621B730B840B950B39F40A26A5
:1030200061F0232B242B252B21F408950A2609F483
:10303000A140A6958FEF811D811D089597F99F6787
:1030400080E870E060E008959FEF80EC0895DF93E2
:10305000CF931F930F93FF92EF92DF927B018C012E
:10306000689405C0DA2EEF01AFD0FE01E894A59177
:103070002591359145915591AEF3EF010EDEFE019C
:103080009701A801DA9479F7DF90EF90FF900F9104
:103090001F91CF91DF91089500240A941616170608
:1030A00018060906089500240A9412161306140639
:1030B00005060895C9CF50D0E8F3E894E0E0BB27B7
:1030C0009F57F0F02AED3FE049EC06C0EE0FBB0F32
:1030D000661F771F881F28F0B23A620773078407BC
:1030E00028F0B25A620B730B840BE3959A9572F732
:1030F000803830F49A95BB0F661F771F881FD2F770
:10310000904806C1092E0394000C11F4882352F054
:10311000BB0F40F4BF2B11F460FF04C06F5F7F4F03
:103120008F4F9F4F0895EF93E0FF06C0A2EA2AED6C
:103130003FE049EC5FEBB1DDE5DF0F90039401FC6C
:103140009058E3E8F1E0F7C057FD9058440F551F41
:1031500059F05F3F71F04795880F97FB991F61F019
:103160009F3F79F087950895121613061406551F90
:10317000F2CF4695F1DF08C0161617061806991FFC
:10318000F1CF86957105610508940895E894BB27F1
:1031900066277727CB0197F908952CDF08F48FEF86
:1031A00008959B01AC0160E070E080E89FE331CEC0
:1031B0000BD0A8CF71DF28F076DF18F0952309F047
:1031C0003DCF42CF1124E3CFBFDFA0F3959FD1F3D2
:1031D000950F50E0551F629FF001729FBB27F00DC5
:1031E000B11D639FAA27F00DB11DAA1F649F66271A
:1031F000B00DA11D661F829F2227B00DA11D621F69
:10320000739FB00DA11D621F839FA00D611D221F22
:10321000749F3327A00D611D231F849F600D211D06
:10322000822F762F6A2F11249F5750408AF0E1F0A9
:1032300088234AF0EE0FFF1FBB1F661F771F881FF2
:1032400091505040A9F79E3F510570F0F7CE9FCFA7
:103250005F3FECF3983EDCF3869577956795B795DD
:10326000F795E7959F5FC1F7FE2B880F911D969507
:10327000879597F908959F931EDF0F9007FCEE5FE7
:1032800052CF11F40EF4E0CE41C066DFD0F39923A3
:10329000D9F3CEF39F57550B87FF46D00024A0E605
:1032A00040EA900180585695979528F4805C660F07
:1032B000771F881F20F026173707480730F4621B56
:1032C000730B840B202931294A2BA6951794079458
:1032D000202531254A2758F7660F771F881F20F0D1
:1032E00026173707480730F4620B730B840B200D49
:1032F000311D411DA09581F7B901842F9158880F88
:103300009695879508959B01AC0152CF9F3F31F070
:10331000915020F4879577956795B795880F911D03
:103320009695879597F9089591505040660F771FAD
:10333000881FD2F708959F938F937F936F93FF9386
:10334000EF939B01AC0134DFEF91FF9180DE2F9171
:103350003F914F915F912CCFFB019F01E894423048
:10336000C4F04532B4F44A3029F497FB1EF490952A
:1033700081959F4F642F77270E944C1A805D8A3376
:103380000CF0895D8193CB010097A1F716F45DE203
:1033900051931082C9010C943C1AFA01CF93FF9308
:1033A000EF93223044F1253234F5C22FE894CA302D
:1033B00049F497FB3EF490958095709561957F4F09
:1033C0008F4F9F4F2C2F332744275527FF93EF9381
:1033D0000E94601AEF91FF91605D6A330CF0695DA5
:1033E0006193B901CA01605070408040904051F72C
:1033F00016F4CDE2C19310828F919F91CF910C94DE
:103400003C1AFA01CF93FF93EF932230CCF0253290
:10341000BCF4C22F2C2F332744275527FF93EF935B
:103420000E94601AEF91FF91605D6A330CF0695D54
:103430006193B901CA01605070408040904051F7DB
:1034400010828F919F91CF910C943C1AFB019F01A8
:10345000423074F0453264F4642F77270E944C1A8E
:10346000805D8A330CF0895D8193CB010097A1F7D1
:103470001082C9010C943C1ADC01FC01672F719188
:103480007723E1F7329704C07C916D93708362914A
:10349000AE17BF07C8F30895AA1BBB1B51E107C0B5
:1034A000AA1FBB1FA617B70710F0A61BB70B881FD4
:1034B000991F5A95A9F780959095BC01CD01089563
:1034C000A1E21A2EAA1BBB1BFD010DC0AA1FBB1F28
:1034D000EE1FFF1FA217B307E407F50720F0A21B9A
:1034E000B30BE40BF50B661F771F881F991F1A9407
:1034F00069F760957095809590959B01AC01BD0131
:08350000CF010895F894FFCFFC
:0835080000E1000000000800D2
:00000001FF
